:100000000C9463000C948B000C948B000C9485086A
:100010000C9485080C9485080C948B000C94B707FD
:100020000C948B000C94DC070C948B000C948B00CC
:100030000C948B000C948B000C948B000C948B0014
:100040000C946D070C948B000C943B070C941507D3
:100050000C948B000C948B000C948B000C948B00F4
:100060000C948B000C948B0000000008000201002F
:100070000003040700000000000000000000000072
:10008000240027002A000000000023002600290089
:1000900000000000250028002B00040404040404D0
:1000A0000404020202020202030303030303010227
:1000B00004081020408001020408102001020408F6
:1000C0001020FD08380D11241FBECFEFD8E0DEBF91
:1000D000CDBF11E0A0E0B1E0ECECF2E202C005908F
:1000E0000D92AE36B107D9F722E0AEE6B1E001C01D
:1000F0001D92AB3AB207E1F710E0C2E6D0E004C0CF
:100100002197FE010E94610FC136D107C9F70E94F5
:10011000C6090C9459110C940000AF92BF92CF9273
:10012000DF92EF92FF920F931F93CF93DF936C01B7
:100130007B018B01040F151FEB015E01AE18BF0898
:10014000C017D10759F06991D601ED91FC9101904A
:10015000F081E02DC6010995892B79F7C501DF9162
:10016000CF911F910F91FF90EF90DF90CF90BF90B4
:10017000AF900895FC01538D448D252F30E0842FDE
:1001800090E0821B930B541710F0CF9608950197BF
:100190000895FC01918D828D981761F0A28DAE0FAC
:1001A000BF2FB11D5D968C91928D9F5F9F73928F33
:1001B00090E008958FEF9FEF0895FC01918D828D5F
:1001C000981731F0828DE80FF11D858D90E008952C
:1001D0008FEF9FEF0895FC01918D228D892F90E084
:1001E000805C9F4F821B91098F739927089585EE3C
:1001F00091E00E94EB0021E0892B09F420E0822F9E
:10020000089580E090E0892B29F00E94F700811189
:100210000C9400000895FC01A48DA80FB92FB11D06
:10022000A35ABF4F2C91848D90E001968F7399272C
:10023000848FA689B7892C93A089B1898C9183700A
:1002400080648C93938D848D981306C00288F38903
:10025000E02D80818F7D80830895EF92FF920F9330
:100260001F93CF93DF93EC0181E0888F9B8D8C8D62
:1002700098131AC0E889F989808185FF15C09FB756
:10028000F894EE89FF896083E889F9898081837019
:10029000806480839FBF81E090E0DF91CF911F91C8
:1002A0000F91FF90EF900895F62E0B8D10E00F5FE9
:1002B0001F4F0F731127E02E8C8D8E110CC00FB6BF
:1002C00007FCFACFE889F989808185FFF5CFCE0157
:1002D0000E940B01F1CFEB8DEC0FFD2FF11DE35AC6
:1002E000FF4FF0829FB7F8940B8FEA89FB898081DA
:1002F0008062CFCFCF93DF93EC01888D8823B9F054
:10030000AA89BB89E889F9898C9185FD03C0808120
:1003100086FD0DC00FB607FCF7CF8C9185FFF2CF9D
:10032000808185FFEDCFCE010E940B01E9CFDF91E7
:10033000CF91089590E0FC01E859FF4F2491FC0112
:10034000E255FF4F3491FC01E656FF4FE491EE2356
:10035000C9F0222339F0233001F1A8F4213019F13A
:10036000223029F1F0E0EE0FFF1FE057FF4FA5917B
:10037000B4918FB7F894EC91611126C030953E236B
:100380003C938FBF08952730A9F02830C9F024305E
:1003900049F7809180008F7D03C0809180008F7726
:1003A00080938000DFCF84B58F7784BDDBCF84B5A9
:1003B0008F7DFBCF8091B0008F778093B000D2CF3C
:1003C0008091B0008F7DF9CF3E2BDACFCF93DF93B2
:1003D00090E0FC01E255FF4F249186569F4FFC01AF
:1003E00084918823C9F090E0880F991FFC01E4589C
:1003F000FF4FA591B491FC01E057FF4FC591D491F7
:1004000061110DC09FB7F8948C91209582238C9335
:100410008881282328839FBFDF91CF910895623080
:1004200051F49FB7F8943C91822F809583238C934D
:10043000E8812E2BEFCF8FB7F894EC912E2B2C93D5
:100440008FBFEACF1F93CF93DF93182FEB0161E0AB
:100450000E94E601209739F460E0812FDF91CF916F
:100460001F910C949A01CF3FD10511F461E0F5CFB3
:10047000E12FF0E0E859FF4FE491E33031F140F42F
:10048000E130B1F0E230E1F0C038D1057CF7E4CFE3
:10049000E73029F1E83059F1E430B1F7809180007C
:1004A000806280938000D0938B00C0938A0004C048
:1004B00084B5806884BDC7BDDF91CF911F91089539
:1004C00084B5806284BDC8BDF7CF8091800080680C
:1004D00080938000D0938900C0938800EDCF8091F5
:1004E000B00080688093B000C093B300E5CF8091E6
:1004F000B00080628093B000C093B400DDCF0F9352
:100500001F93CF93DF938C01C62F60E084E00E949D
:100510009A0161E085E00E949A0160E086E00E9415
:100520009A0161E087E00E949A010230110509F406
:1005300048C058F401151105B9F10130110521F138
:10054000DF91CF911F910F9108950330110509F4A8
:1005500040C004301105A1F760E084E00E949A01D8
:1005600060E085E00E949A0160E086E00E949A01C6
:1005700060E087E00E949A016FEF70E089E00E94DE
:1005800022026FEF70E016C061E084E00E949A01E1
:1005900060E085E00E949A0161E086E00E949A0195
:1005A00060E087E00E949A01D0E0BE0189E00E94ED
:1005B0002202BE018AE0DF91CF911F910F910C942E
:1005C000220270E060E089E00E9422026C2F70E05D
:1005D000F1CF6C2F70E089E00E94220270E060E0B1
:1005E000E9CF3FB7F8948091BC019091BD01A091F3
:1005F000BE01B091BF0126B5A89B05C02F3F19F0E1
:100600000196A11DB11D3FBFBA2FA92F982F882792
:10061000BC01CD01620F711D811D911D42E0660F6D
:10062000771F881F991F4A95D1F708958F929F923F
:10063000AF92BF92CF92DF92EF92FF926B017C015B
:100640000E94F1024B015C01C114D104E104F104E8
:10065000B9F00E94F102681979098A099B09683E7C
:1006600073408105910580F321E0C21AD108E108A9
:10067000F10888EE880E83E0981EA11CB11CE4CF1F
:10068000FF90EF90DF90CF90BF90AF909F908F90B2
:100690000895DC01EC918FEF8E0F8830A0F4685044
:1006A00071099B01220F232F221F330B8E2F90E005
:1006B000FC01EE0FFF1FE80FF91FE953FE4F2183E6
:1006C000660F6095628308952091C2013091C30145
:1006D0002817390771F49091C0018091C1019817D2
:1006E00041F0E091C001F0E0E958FE4F808190E0D8
:1006F00008958FEF9FEF08950895EF92FF920F9363
:100700001F93CF93DF93DC015C96ED90FC905D9797
:10071000E114F10479F481E090E013969C938E93B8
:10072000129790E080E0DF91CF911F910F91FF90A1
:10073000EF9008955196ED91FC91529750968C91BF
:100740005097982F90950FB75E962C915E97122F29
:10075000127021FD6095F8942081112319F1282B46
:100760002083E7012197F1F728E0462F50E0308100
:1007700060FF1AC0382B3083E7012197F1F7BA01E7
:1007800075956795215089F7112381F08081892320
:1007900080830FBF5C968D919C910197F1F781E06A
:1007A00090E0C1CF2923DCCF3923E5CF9081892B7D
:1007B000EFCF2091C2013091C3012817390771F49E
:1007C0008091C1012091C00190E0805C9F4F821B0D
:1007D000910960E470E00E944D0F089590E080E080
:1007E00008952091C2013091C30128173907B9F447
:1007F0009091C0018091C101981789F0E091C001EA
:10080000F0E0E958FE4F80812091C00130E02F5F79
:100810003F4F2F7333272093C00190E008958FEF4F
:100820009FEF089590E080E00895CF93DF93FC015F
:1008300001900020E9F73197AF01481B590BBC012B
:1008400085EE91E00E948D00EC0142E050E06EE206
:1008500071E085EE91E00E948D008C0F9D1FDF916D
:10086000CF9108952F923F924F925F926F927F9215
:100870008F929F92AF92BF92CF92DF92EF92FF92B0
:100880000F931F93CF93DF93CDB7DEB72A970FB6A1
:10089000F894DEBF0FBECDBF8C011A82198225E00D
:1008A000F22EE12C31EC232E3CE2332E4BE0C42E11
:1008B000D12C58EE852E53E0952EA12CB12C0E9400
:1008C000F1022B013C01D8011D963C922E921C97FF
:1008D0001A96ED91FC911B97808114969C91149728
:1008E000892B80831696ED91FC9117979081149631
:1008F0008C911497809589238083C6010197F1F725
:100900001696ED91FC911797808114969C911497FF
:10091000892B808383E290E00197F1F71696ED91A1
:10092000FC911797908114968C9114978095892348
:1009300080831A96ED91FC911B97908114968C916F
:1009400014978095892380831896ED91FC911997CF
:10095000808115969C91892359F50E94F102AB0183
:10096000BC01F80184859585B0E0A0E08855994EDA
:10097000AF4FBF4F840F951FA61FB71F868797875E
:10098000A08BB18BD8011896ED91FC9119978081BD
:1009900015969C91892371F40E94F102F801268535
:1009A000378540895189261737074807590750F777
:1009B000FA9464C00E94F102D8011C962D913C91DA
:1009C000620F731F811D911DF80166877787808BE9
:1009D000918BD8011896ED91FC911997808115960D
:1009E0009C91892369F00E94F102F80126853785E0
:1009F00040895189261737074807590750F7D8CF3C
:100A00000E94F102D8011C962D913C911D97A901DD
:100A1000455051091E962D913C91FA01E21BF30BB2
:100A2000AF01460F571F4115510511F2EE20C1F0DD
:100A3000AE2DB0E0AA0FBB1F129621E030E02C0FC4
:100A40003D1FA20FB31F2E2DCD010497FC01808105
:100A500091818417950728F49E938E932150A1F7D6
:100A600020E0E22FF0E0EE0FFF1F21E030E02C0F3E
:100A70003D1FE20FF31F51834083E394EF1428F5E9
:100A80000E94F10264197509860997096834714753
:100A90008105910508F013CF0E94F10248E4440E4D
:100AA00041E7541E611C711CA3019201261B370BE8
:100AB000480B590BCA01B901A50194010E94080F06
:100AC000CA01B9010E941603FACEEF2DEE7FEC0F9A
:100AD000FD2FF11D6181728190E080E02A960FB6B2
:100AE000F894DEBF0FBECDBFDF91CF911F910F9164
:100AF000FF90EF90DF90CF90BF90AF909F908F903E
:100B00007F906F905F904F903F902F900895CF937C
:100B1000DF93EC01049661307105D1F0623071050C
:100B2000D1F06CED75E00E94490364E670E080E06E
:100B300090E00E9416038A819B810E943204CB01BF
:100B400069E370E00E94390FCB01DF91CF910895E6
:100B50006EEE72E0E8CF6AEC78E0E5CF0F931F937A
:100B6000CF93DF93EC0188819981009759F02A8116
:100B70003B812617370730F081E0DF91CF911F913D
:100B80000F9108958B016F5F7F4F0E948C1000972B
:100B900059F0998388831B830A832C813D81232B01
:100BA00059F7FC011082E8CF80E0E7CFEF92FF9287
:100BB0000F931F93CF93DF93EC017B018A01BA015E
:100BC0000E94AE0528813981811114C0211531059B
:100BD00019F0C9010E940310198218821D821C821B
:100BE0001B821A82CE01DF91CF911F910F91FF904E
:100BF000EF9008951D830C83B701C9010E94521123
:100C0000F1CF5F926F927F928F929F92AF92BF923D
:100C1000CF92DF92EF92FF920F931F93CF93DF93C8
:100C2000CDB7DEB72C970FB6F894DEBF0FBECDBFA1
:100C30004C0118861F821A8619861C861B86FB01AA
:100C400080819181009739F044815581BC01CE01AA
:100C500007960E94D6055B8410E000E0E12CD12CC1
:100C60008F819885C02E051508F075C02B853C85B1
:100C70000217130708F05FC0009709F45CC0800FEB
:100C8000911FFC018081803209F055C0F12C3801A0
:100C90000E151F0510F0370178011A8219821C8287
:100CA0001B821E821D8250E040E060E371E0CE01B5
:100CB00001960E94D605AB84BC846A147B0418F5A7
:100CC000EA14FB0408F45701EF81F885EA0DFB1DD7
:100CD000F08010826F817885660D771D6115710532
:100CE00069F1FB0101900020E9F73197AF01461B44
:100CF000570BCE0101960E94D6058F819885A80ECC
:100D0000B91EF501F082A980BA8060E0A114B10497
:100D100019F0C5010E94FD0DFF24F394FD0CED2D8B
:100D2000F0E0EE58FE4F6083EE24E394EC0CC50136
:100D30000E940310DF2C0F5F1F4F92CF89819A8191
:100D4000009711F00E9403101A8219821E821D82E0
:100D50001C821B82D2CF0E9403100091720110915D
:100D60007301E0907501F0907601F401808191812A
:100D7000892BA9F480917401882309F440C060E0B4
:100D800084E00E949A0161E085E00E949A0160E09F
:100D900086E00E949A0161E087E00E949A01EE20BD
:100DA000E1F161E088E00E94E60181E090E0F40179
:100DB000918380838F2D90E0F40196838583602F4B
:100DC00070E089E00E942202612F70E08AE00E94B8
:100DD00022022C960FB6F894DEBF0FBECDBFDF9176
:100DE000CF911F910F91FF90EF90DF90CF90BF9028
:100DF000AF909F908F907F906F905F90089561E08B
:100E000084E00E949A0160E085E00E949A0161E01E
:100E100086E00E949A0160E0BFCF62E088E00E9415
:100E2000E601F40111821082C5CF1F920F920FB616
:100E30000F9211242F933F934F935F936F937F9360
:100E40008F939F93AF93BF93EF93FF9385EE91E0C2
:100E50000E940B01FF91EF91BF91AF919F918F91F4
:100E60007F916F915F914F913F912F910F900FBEA6
:100E70000F901F9018951F920F920FB60F9211248A
:100E80002F938F939F93EF93FF93E091F501F09150
:100E9000F6018081E091FB01F091FC0182FD1BC015
:100EA00090818091FE018F5F8F732091FF018217E7
:100EB00041F0E091FE01F0E0EB51FE4F958F809301
:100EC000FE01FF91EF919F918F912F910F900FBE97
:100ED0000F901F9018958081F4CF1F920F920FB63C
:100EE0000F9211242F933F938F939F93AF93BF93B0
:100EF0008091B8019091B901A091BA01B091BB0164
:100F00003091B70123E0230F2D3758F50196A11D2D
:100F1000B11D2093B7018093B8019093B901A093BC
:100F2000BA01B093BB018091BC019091BD01A09129
:100F3000BE01B091BF010196A11DB11D8093BC01FE
:100F40009093BD01A093BE01B093BF01BF91AF913B
:100F50009F918F913F912F910F900FBE0F901F90F7
:100F6000189526E8230F0296A11DB11DD2CF1F921E
:100F70000F920FB60F9211242F933F934F935F93CD
:100F80006F937F938F939F93AF93BF93EF93FF9351
:100F9000F0E0E0E00995FF91EF91BF91AF919F9153
:100FA0008F917F916F915F914F913F912F910F9012
:100FB0000FBE0F901F9018951F920F920FB60F92B1
:100FC00011242F933F934F935F936F937F938F934E
:100FD0009F93AF93BF93EF93FF938091C5018F5F72
:100FE0008093C501E091C6012091C5018E2F90E04C
:100FF000FC01EE0FFF1FE80FF91FE953FE4F81813F
:10100000E091C60182131DC08E2F90E0FC01EE0F0F
:10101000FF1FE80FF91FE953FE4F82818093B20052
:10102000FF91EF91BF91AF919F918F917F916F91C0
:101030005F914F913F912F910F900FBE0F901F9096
:1010400018952091C5018E2F90E0FC01EE0FFF1F37
:10105000E80FF91FE953FE4F8181821708F7E091ED
:10106000C6018E2F90E0FC01EE0FFF1FE80FF91F65
:10107000E953FE4F808185FF10C0E091C6018E2F9D
:1010800090E0FC01EE0FFF1FE80FF91FE953FE4F40
:10109000808160E08F710E949A018091C6018F5F0C
:1010A0008093C6011092C5011092B2008091C601D2
:1010B000882319F18091C6018930F8F4E091C601C6
:1010C0008E2F90E0FC01EE0FFF1FE80FF91FE95390
:1010D000FE4F808185FFA4CFE091C6018E2F90E066
:1010E000FC01EE0FFF1FE80FF91FE953FE4F80814F
:1010F00061E08F710E949A0193CF8091C60189307F
:1011000008F48ECF1092C6018BCF1F920F920FB6AC
:101110000F9211242F933F934F935F936F937F937D
:101120008F939F93AF93BF93EF93FF93E091C2018F
:10113000F091C301309749F0A685B7858585968DD6
:1011400091FF14C09C918923A1F4FF91EF91BF916D
:10115000AF919F918F917F916F915F914F913F914F
:101160002F910F900FBE0F901F9018959C9189237F
:1011700061F7A389B4899C918589809589238C9393
:10118000868997890197F1F7608D718DA685B7855E
:10119000558538E020E0CB010197F1F7822F90E0F0
:1011A00095958795282F4C91452309F0206831505B
:1011B00091F7868D81FD20958091C10190E0019687
:1011C0008F7399273091C001381799F0A091C10110
:1011D000B0E0A958BE4F2C938093C101828D938DAE
:1011E0000197F1F7A389B4898C919589892B8C9308
:1011F000ACCF868D8160868FF1CFCF92DF92EF9258
:10120000FF921092E8011092E70198EEC92E93E048
:10121000D92EE12CF12CC092E901D092EA01E092A2
:10122000EB01F092EC018EE091E09093E601809367
:10123000E50185EC90E09093F2018093F10184EC5C
:1012400090E09093F4018093F30180EC90E0909310
:10125000F6018093F50181EC90E09093F801809382
:10126000F70182EC90E09093FA018093F90186EC0B
:1012700090E09093FC018093FB011092FE0110928C
:10128000FF0110920002109201021092A20210922D
:10129000A1021092A4021092A3021092A602109230
:1012A000A50250E040E060E371E081EA92E00E9434
:1012B000D6051092850210928402C0928602D092C6
:1012C0008702E0928802F092890280E291E0909396
:1012D00083028093820210929902109298021092D7
:1012E0009B0210929A0210929D0210929C02109200
:1012F0009F0210929E026091A0026E7F6D7F6093AC
:10130000A0026695617081E0682783E00E949A01DF
:1013100061E083E00E94E601E1EBF0E0E491E0931C
:101320009202EDE9F0E0E491F0E0EE0FFF1FE057EC
:10133000FF4F85919491909394028093930260E083
:1013400082E00E94E6018091A00281FD04C061E07C
:1013500082E00E949A0182E080938E02E0EBF0E04E
:10136000E491E0938F02ECE9F0E0E491F0E0EE0F1D
:10137000FF1FEA57FF4F85919491909391028093BC
:101380009002FF90EF90DF90CF900895CF93DF937E
:1013900000D000D000D0CDB7DEB7789484B582609D
:1013A00084BD84B5816084BD85B5826085BD85B509
:1013B000816085BD80916E00816080936E00109287
:1013C0008100809181008260809381008091810002
:1013D0008160809381008091800081608093800093
:1013E0008091B10084608093B1008091B0008160F1
:1013F0008093B00080917A00846080937A0080911D
:101400007A00826080937A0080917A008160809374
:101410007A0080917A00806880937A001092C100EF
:1014200010929D0210929C0210929B0210929A02BE
:1014300010929902109298028DE991E090939F0288
:1014400080939E0290918E02963108F047C02DEB5A
:1014500030E030939902209398022BE931E03093E9
:101460009B0220939A022CE231E030939D0220935C
:101470009C022091680084E0983048F031E09E3072
:1014800008F430E081E001C0880F3A95EAF7822B3A
:10149000809368002DE630E0983050F02BE630E085
:1014A0009E3030F02CE630E0963110F030E020E055
:1014B0003093960220939502292F30E0983008F05F
:1014C000BEC181E001C0880F9A95EAF78093970228
:1014D00080919E0290919F020197F1F780919C026A
:1014E00090919D02892B49F1E091C201F091C301D5
:1014F00022E0E238F20709F1309739F0A389B48984
:101500009C918589809589238C938091A0028E7F00
:101510008093A0021092C1011092C00182E892E073
:101520009093C3018093C201E0919502F0919602DD
:10153000808190919702892B8083E091F501F09151
:10154000F60182E08083E091F101F091F2011082D6
:10155000E091F301F091F40180E180831092FD01AC
:10156000E091F901F091FA0186E08083E091F701C2
:10157000F091F801808180618083E091F701F09122
:10158000F801808188608083E091F701F091F80193
:10159000808180688083E091F701F091F80180817B
:1015A0008F7D808387E090E00E94670F8C01DC01D3
:1015B0001D921C927C01B4E0EB0EF11C8091C401E1
:1015C000883008F049C18F5F8093C401F80184839B
:1015D000F8011682158261E089E00E94E60161E06F
:1015E0008AE00E94E60161E084E00E94E60161E099
:1015F00085E00E94E60161E086E00E94E60161E08C
:1016000087E00E94E60182E190E00E94670FDC0122
:10161000EBEBF0E0E4911496EC931497EAEBF0E036
:10162000E4911596EC93159727EA30E0F90184913F
:10163000E82FF0E0EE0FFF1FE057FF4F85919491E8
:1016400017969C938E931697E6EAF0E0E491F0E00B
:10165000EE0FFF1FEA57FF4F8591949119969C93C7
:101660008E931897F9012491E22FF0E0EE0FFF1FFF
:10167000E458FF4F859194911B969C938E931A97F3
:1016800081EC9CE21D969C938E931C97F801B3838A
:10169000A2838091E201811121C0E7ECF1E09BE09F
:1016A00087E594838583339621E0EF3DF207C9F700
:1016B0008EE38093C8011092C6011092C50110926A
:1016C00070001092B00082E08093B1001092B200DE
:1016D00081E087BB809370008093E201D80114966B
:1016E0008C918823A9F061E088E00E94E601D8018E
:1016F0001496EC918E2F90E0FC01EE0FFF1FE80F87
:10170000F91FE953FE4F8081807E8860806280836C
:101710006CED75E0C7010E9449031093E40100934A
:10172000E30162E088E00E94E60189E3682E712C03
:101730009AE0892E912CA12CB12C20E0422E20E0A1
:10174000522E30E2332E82E892E00E94D90318161E
:1017500019060CF054C082E892E00E94F103009157
:10176000A5021091A6028A3009F07AC039821A8245
:101770000F5F1F4FB80181EA92E00E94AE058823F7
:1017800099F02091A1023091A2028091A50290913E
:10179000A602BE016F5F7F4F820F931F0E945211FE
:1017A0001093A6020093A5020091E3011091E401B9
:1017B0001A8219821C821B821E821D826091A102E4
:1017C0007091A2026115710541F04091A5025091FE
:1017D000A602CE0101960E94D605BE016F5F7F4F23
:1017E000C8010E94010689819A810E94031050E07D
:1017F00040E060E371E081EA92E00E94D60500914A
:10180000E3011091E401F80180819181019759F47D
:10181000858196818130910509F47EC008F43FC02E
:10182000029709F420C14114510409F48CCF0E949D
:10183000F700882309F487CF0E94000084CF9E30F0
:1018400040F42850310981E001C0880F2A95EAF759
:101850003DCE2E503109F7CFD80114961C92B8CE48
:1018600089831A820F5F1F4FB80181EA92E00E94BC
:10187000AE05882321F22091A1023091A20280912D
:10188000A5029091A602BE016F5F7F4F820F931F4A
:101890000E9452111093A6020093A502B0CF6FEFE1
:1018A00090E080E00E947F02D80112968D919C9179
:1018B0000E943204CB01B3010E94390F61507109BB
:1018C0006D31710508F0AFCF60E084E090E00E94D8
:1018D0007F026FEF81E090E00E947F0264EF71E091
:1018E00080E090E00E9416030E94A50DA5019401DE
:1018F0000E949F0E653060F46FEF82E090E00E94DE
:101900007F026EE571E080E090E00E9416038BCFCD
:101910006FEF83E090E0F3CF6FEF90E080E00E9404
:101920007F026CED75E0C80104960E94490370E0E7
:1019300060E0C8010E94870501974D9708F073CFBA
:1019400060E084E090E00E947F0262E070E0C80105
:101950000E9487056C0161E070E0C8010E94870564
:101960007C0170E060E0C8010E948705BC01990F0E
:10197000880B990B0E94400E20E030E044E352E4D3
:101980000E94390E18165CF06FEF81E090E00E9423
:101990007F0264EF71E080E090E00E941603BFE1F7
:1019A000CB16D1040CF052C0EFE1EE16F1040CF0AE
:1019B00046C081E391E00E9415046FEF81E090E062
:1019C0000E947F026AEF70E080E090E00E941603C0
:1019D00084E491E00E94150462E070E0C8010E9476
:1019E00087057C0161E070E0C8010E9487056C01F9
:1019F0006AEF70E080E090E00E9416032FE1E216AB
:101A0000F104B4F002E010E06FEF81E090E00E949A
:101A10007F0264EF71E080E090E00E9416036FEFB8
:101A2000C8010E947F0264EF71E080E090E06DCF1A
:101A3000FFE1CF16D1040CF201E010E0E5CF1C1459
:101A40001D0454F46FEF83E090E0EBCFCE14DF047D
:101A5000CCF31E141F043CF7EC14FD0424F76FEFC5
:101A600082E090E0DECF8DE591E00E941504DBCEB0
:101A700080E291E090938302809382028091C20180
:101A80009091C3018258924071F4E0919502F091D7
:101A9000960290818091970280958923808310928D
:101AA000C3011092C2018091A1029091A2020C94F4
:101AB00003108F929F92AF92BF92CF92DF92EF92DC
:101AC000FF92CF93DF93EC01688179818A819B81BA
:101AD000611571058105910521F464E279ED8BE5CD
:101AE00097E02DE133EF41E050E00E949F0E490165
:101AF0005A019B01AC01A7EAB1E40E94BE0E6B0142
:101B00007C01ACEEB4EFA50194010E94CC0EC60E90
:101B1000D71EE81EF91EF7FE06C081E0C81AD108DC
:101B2000E10880E8F80AC882D982EA82FB82C7010C
:101B3000B6019F77DF91CF91FF90EF90DF90CF902C
:101B4000BF90AF909F908F9008958F929F92AF9289
:101B5000BF92CF92DF92EF92FF926091000170915D
:101B600001018091020190910301611571058105C8
:101B7000910521F464E279ED8BE597E02DE133EFF7
:101B800041E050E00E949F0E49015A019B01AC01C7
:101B9000A7EAB1E40E94BE0E6B017C01ACEEB4EF8B
:101BA000A50194010E94CC0EC60ED71EE81EF91E98
:101BB000F7FE06C081E0C81AD108E10880E8F80AFB
:101BC000C0920001D0920101E0920201F092030163
:101BD000C701B6019F77FF90EF90DF90CF90BF9045
:101BE000AF909F908F9008956093000170930101D2
:101BF000809302019093030108951F93FC0199279C
:101C00008827BC01E89411911032E9F3193010F0E3
:101C10001E30C8F31B3251F01D3249F4689406C0DF
:101C20000E94240E610F711D811D911D1191105391
:101C30001A30B0F33EF490958095709561957F4F82
:101C40008F4F9F4F1F910895592F482F372F262FC1
:101C5000660F771F881F991F660F771F881F991FB0
:101C6000620F731F841F951F660F771F881F991FB0
:101C700008950E947B0E08F481E00895E89409C05D
:101C800097FB3EF490958095709561957F4F8F4FAF
:101C90009F4F9923A9F0F92F96E9BB279395F695C5
:101CA000879577956795B795F111F8CFFAF4BB0F43
:101CB00011F460FF1BC06F5F7F4F8F4F9F4F16C0A7
:101CC000882311F096E911C0772321F09EE8872F31
:101CD000762F05C0662371F096E8862F70E060E0ED
:101CE0002AF09A95660F771F881FDAF7880F969566
:101CF000879597F90895990F0008550FAA0BE0E80A
:101D0000FEEF16161706E807F907C0F012161306BD
:101D1000E407F50798F0621B730B840B950B39F4FD
:101D20000A2661F0232B242B252B21F408950A2663
:101D300009F4A140A6958FEF811D811D0895052E00
:101D400097FB1EF400940E94B60E57FD07D00E9428
:101D5000080F07FC03D04EF40C94B60E5095409536
:101D6000309521953F4F4F4F5F4F08959095809547
:101D7000709561957F4F8F4F9F4F08950E942A0F56
:101D8000A59F900DB49F900DA49F800D911D1124CF
:101D90000895B7FF0C94BE0E0E94BE0E821B930BDB
:101DA00008952F923F924F925F926F927F928F92FF
:101DB0009F92AF92BF92CF92DF92EF92FF920F93DA
:101DC0001F93CF93DF93CDB7DEB7CA1BDB0B0FB6E4
:101DD000F894DEBF0FBECDBF09942A8839884888A1
:101DE0005F846E847D848C849B84AA84B984C88437
:101DF000DF80EE80FD800C811B81AA81B981CE0F2E
:101E0000D11D0FB6F894DEBF0FBECDBFED01089512
:101E1000A1E21A2EAA1BBB1BFD010DC0AA1FBB1FEE
:101E2000EE1FFF1FA217B307E407F50720F0A21B60
:101E3000B30BE40BF50B661F771F881F991F1A94CD
:101E400069F760957095809590959B01AC01BD01F7
:101E5000CF010895A29FB001B39FC001A39F700D51
:101E6000811D1124911DB29F700D811D1124911DA2
:101E70000895AA1BBB1B51E107C0AA1FBB1FA617D1
:101E8000B70710F0A61BB70B881F991F5A95A9F723
:101E900080959095BC01CD01089597FB072E16F40F
:101EA000009407D077FD09D00E94390F07FC05D0B8
:101EB0003EF4909581959F4F0895709561957F4F61
:101EC0000895EE0FFF1F0590F491E02D09940F93F4
:101ED0001F93CF93DF938230910510F482E090E05E
:101EE000E091A902F091AA0230E020E0B0E0A0E089
:101EF000309799F42115310509F44AC0281B390B94
:101F000024303105D8F58A819B816115710589F1ED
:101F1000FB0193838283FE0111C0408151810281C4
:101F2000138148175907E0F04817590799F410979B
:101F300061F012960C93129713961C933296CF0170
:101F4000DF91CF911F910F9108950093A9021093F3
:101F5000AA02F4CF2115310551F04217530738F08A
:101F6000A901DB019A01BD01DF01F801C1CFEF0139
:101F7000F9CF9093AA028093A902CDCFFE01E20F80
:101F8000F31F819391932250310939832883D7CF4E
:101F90002091A7023091A802232B41F42091060141
:101FA000309107013093A8022093A70220910401E9
:101FB000309105012115310541F42DB73EB740910F
:101FC000080150910901241B350BE091A702F09103
:101FD000A802E217F307A0F42E1B3F0B28173907BE
:101FE00078F0AC014E5F5F4F2417350748F04E0F75
:101FF0005F1F5093A8024093A702819391939FCFB4
:10200000F0E0E0E09CCFCF93DF930097E9F0FC0194
:10201000329713821282A091A902B091AA02ED0117
:1020200030E020E01097A1F420813181820F931FCE
:102030002091A7023091A8022817390709F061C042
:10204000F093A802E093A702DF91CF910895EA01EF
:10205000CE17DF07E8F54A815B819E0141155105E6
:10206000B1F7E901FB83EA8349915991C40FD51F68
:10207000EC17FD0761F4808191810296840F951F12
:10208000E90199838883828193819B838A83F0E02D
:10209000E0E012968D919C9113970097B9F52D91E0
:1020A0003C911197CD010296820F931F2091A702B8
:1020B0003091A8022817390739F6309751F5109258
:1020C000AA021092A902B093A802A093A702BCCFC3
:1020D000D383C28340815181840F951FC817D907CC
:1020E00061F44E5F5F4F88819981480F591F51837A
:1020F00040838A819B81938382832115310509F076
:10210000B0CFF093AA02E093A9029ECFFD01DC01BB
:10211000C0CF13821282D7CFB0E0A0E0E2E9F0E1B5
:102120000C94D30E8C01009751F4CB010E94670FE1
:102130008C01C801CDB7DEB7E0E10C94EF0EFC01D5
:10214000E60FF71F9C0122503109E217F30708F44C
:102150009DC0D901CD91DC911197C617D70798F092
:10216000C530D10530F3CE0104978617970708F3E1
:10217000C61BD70B2297C193D1936D937C93CF014C
:102180000E940310D6CF5B01AC1ABD0A4C018C0E25
:102190009D1EA091A902B091AA02512C412CF12CB4
:1021A000E12C109731F58091A7029091A802881533
:1021B000990509F05CC04616570608F058C0809192
:1021C000040190910501009741F48DB79EB74091AD
:1021D000080150910901841B950BE817F90708F0D5
:1021E00055C0F093A802E093A702F90171836083C0
:1021F000A0CF8D919C91119712966C901297139687
:102200007C901397A815B90559F56C0142E0C40EEE
:10221000D11CCA14DB0420F1AC014A195B09DA01B4
:102220001296159780F06282738251834083D901A0
:102230006D937C93E114F10471F0D7011396FC9334
:10224000EE93129776CF22968C0F9D1FF901918302
:102250008083F301EFCFF093AA02E093A90269CF44
:102260004816590608F42C017D01D3019ACFCB0101
:102270000E94670F7C01009749F0AE01B8010E94EF
:102280004911C8010E940310870153CF10E000E0FC
:1022900050CFFB01DC0102C001900D924150504033
:1022A000D8F70895FB01DC0101900D920020E1F7C1
:1022B000089510E0C2E6D0E004C0FE010E94610F64
:0C22C0002196C336D107C9F7F894FFCF70
:1022CC00010000000000AB028000000000002D01A6
:1022DC008D00BA007A01EB00C900DD00000000009F
:1022EC007D038D0012047C03D903F10364030D0AF2
:1022FC000065736361706546726F6D436F727269CE
:10230C00646F720065736361706546726F6D436FC5
:10231C00727269646F723A7768696C6500636F6D8D
:0E232C00706C6578416C676F726974686D0043
:107E0000112484B714BE81FFF0D085E080938100F7
:107E100082E08093C00088E18093C10086E0809377
:107E2000C20080E18093C4008EE0C9D0259A86E02C
:107E300020E33CEF91E0309385002093840096BBD3
:107E4000B09BFECF1D9AA8958150A9F7CC24DD24C4
:107E500088248394B5E0AB2EA1E19A2EF3E0BF2EE7
:107E6000A2D0813461F49FD0082FAFD0023811F036
:107E7000013811F484E001C083E08DD089C08234E0
:107E800011F484E103C0853419F485E0A6D080C0E4
:107E9000853579F488D0E82EFF2485D0082F10E0AE
:107EA000102F00270E291F29000F111F8ED06801E7
:107EB0006FC0863521F484E090D080E0DECF843638
:107EC00009F040C070D06FD0082F6DD080E0C81688
:107ED00080E7D80618F4F601B7BEE895C0E0D1E017
:107EE00062D089930C17E1F7F0E0CF16F0E7DF06D8
:107EF00018F0F601B7BEE89568D007B600FCFDCFD4
:107F0000A601A0E0B1E02C9130E011968C91119780
:107F100090E0982F8827822B932B1296FA010C0160
:107F200087BEE89511244E5F5F4FF1E0A038BF0790
:107F300051F7F601A7BEE89507B600FCFDCF97BE46
:107F4000E89526C08437B1F42ED02DD0F82E2BD052
:107F50003CD0F601EF2C8F010F5F1F4F84911BD097
:107F6000EA94F801C1F70894C11CD11CFA94CF0C13
:107F7000D11C0EC0853739F428D08EE10CD085E9AC
:107F80000AD08FE07ACF813511F488E018D01DD067
:107F900080E101D065CF982F8091C00085FFFCCF94
:107FA0009093C60008958091C00087FFFCCF809118
:107FB000C00084FD01C0A8958091C6000895E0E648
:107FC000F0E098E1908380830895EDDF803219F02E
:107FD00088E0F5DFFFCF84E1DECF1F93182FE3DFCA
:107FE0001150E9F7F2DF1F91089580E0E8DFEE27F6
:047FF000FF270994CA
:027FFE00040479
:0400000300007E007B
:00000001FF
